:100000000C945D000C9485000C9485000C94850084
:100010000C9485000C9485000C9485000C9485004C
:100020000C9485000C9485000C9485000C94B4020B
:100030000C9485000C9485000C9485000C9485002C
:100040000C9412020C9485000C9482020C945C02B5
:100050000C9485000C9485000C9485000C9485000C
:100060000C9485000C94850000000008000201003B
:100070000003040700000000000000000000000072
:10008000250028002B0000000000240027002A0083
:10009000040404040404040402020202020203032E
:1000A0000303030301020408102040800102040836
:1000B0001020010204081020750311241FBECFEF89
:1000C000D8E0DEBFCDBF11E0A0E0B1E0EEEBFCE098
:1000D00002C005900D92A431B107D9F721E0A4E147
:1000E000B1E001C01D92A53EB207E1F710E0CDE5F9
:1000F000D0E004C02197FE010E94EF05CC35D10766
:10010000C9F70E94D3030C945D060C9400002FB72E
:10011000F89480911C0190911D01A0911E01B09155
:100120001F012FBF8093280190932901A0932A01DA
:10013000B0932B01E0912001F09121010084F18521
:10014000E02D80E291E0099597FF26C02FB7F89443
:1001500080911C0190911D01A0911E01B0911F0181
:100160002FBF409128015091290160912A0170917F
:100170002B01841B950BA60BB70B409124015091CA
:100180002501609126017091270184179507A60724
:10019000B70780F28FEF9FEF0895CF92DF92EF9233
:1001A000FF920F931F93CF93DF936C017A018B0122
:1001B000C0E0D0E0CE15DF0589F0D8016D918D014A
:1001C000D601ED91FC910190F081E02DC6010995D9
:1001D000892B11F47E0102C02196ECCFC701DF917B
:1001E000CF911F910F91FF90EF90DF90CF900895E6
:1001F000FC01918D828D981761F0828DDF01A80F2F
:10020000B11D5D968C91928D9F5F9F73928F90E050
:1002100008958FEF9FEF0895FC01918D828D9817BF
:1002200031F0828DE80FF11D858D90E008958FEFFC
:100230009FEF0895FC01918D228D892F90E0805CC5
:100240009F4F821B91098F739927089580E291E057
:100250000E941A0121E0892B09F420E0822F0895E1
:10026000FC01848DDF01A80FB11DA35ABF4F2C9153
:10027000848D90E001968F739927848FA689B78922
:100280002C93A089B1898C9180648C93938D848DFB
:10029000981306C00288F389E02D80818F7D8083CA
:1002A0000895EF92FF920F931F93CF93DF93EC018A
:1002B00081E0888F9B8D8C8D981305C0E889F98922
:1002C000808185FD24C0F62E0B8D10E00F5F1F4F3F
:1002D0000F731127E02E8C8DE8120CC00FB607FCAF
:1002E000FACFE889F989808185FFF5CFCE010E9498
:1002F0003001F1CF8B8DFE01E80FF11DE35AFF4F66
:10030000F0820B8FEA89FB898081806207C0EE89C9
:10031000FF896083E889F98980818064808381E036
:1003200090E0DF91CF911F910F91FF90EF90089592
:10033000CF93DF93EC01888D8823C9F0EA89FB898C
:10034000808185FD05C0A889B9898C9186FD0FC083
:100350000FB607FCF5CF808185FFF2CFA889B98958
:100360008C9185FFEDCFCE010E943001E7CFDF9168
:10037000CF91089580E090E0892B29F00E9426011A
:1003800081110C940000089590E0FC01E859FF4FA2
:100390003491FC01EC55FF4F2491FC01E057FF4FD5
:1003A000E491EE2309F43BC0332339F1333091F06B
:1003B00038F43130A9F0323001F584B58F7D12C0A8
:1003C000373091F03830A1F03430B9F480918000AA
:1003D0008F7D03C0809180008F77809380000DC057
:1003E00084B58F7784BD09C08091B0008F7703C03A
:1003F0008091B0008F7D8093B000F0E0EE0FFF1F82
:10040000E458FF4FA591B4918FB7F894EC91611126
:1004100003C020952E2301C02E2B2C938FBF08954F
:100420000E94F5051F920F920FB60F9211242F9381
:100430003F938F939F93AF93BF9380911C019091B3
:100440001D01A0911E01B0911F0130911B0123E0FD
:10045000230F2D3720F40196A11DB11D05C026E8FC
:10046000230F0296A11DB11D20931B0180931C0137
:1004700090931D01A0931E01B0931F01809117015D
:1004800090911801A0911901B0911A010196A11D36
:10049000B11D8093170190931801A0931901B09397
:1004A0001A01BF91AF919F918F913F912F910F9022
:1004B0000FBE0F901F9018951F920F920FB60F92BC
:1004C00011242F933F934F935F936F937F938F9359
:1004D0009F93AF93BF93EF93FF9380E291E00E94CD
:1004E0003001FF91EF91BF91AF919F918F917F91DB
:1004F0006F915F914F913F912F910F900FBE0F9091
:100500001F9018951F920F920FB60F9211242F93E0
:100510008F939F93EF93FF93E0913001F09131011E
:100520008081E0913601F091370182FD12C0908107
:10053000809139018F5F8F7320913A01821751F0BA
:10054000E0913901F0E0E05EFE4F958F8093390134
:1005500001C08081FF91EF919F918F912F910F901A
:100560000FBE0F901F9018951F920F920FB60F920B
:1005700011242F933F934F935F936F937F938F93A8
:100580009F93AF93BF93EF93FF938091140187FFE5
:1005900005C010928500109284001BC020911401A8
:1005A000022E000C330B8091E10190E028173907EF
:1005B00084F480911401082E000C990BFC01EE0FBD
:1005C000FF1F8E0F9F1FFC01E354FE4F808186FDAD
:1005D00015C0809114018F5F809314012091140144
:1005E000022E000C330B8091E10190E028173907AF
:1005F000C4F4809114018C3064F113C08091140113
:10060000082E000C990BFC01EE0FFF1F8E0F9F1F91
:10061000FC01E354FE4F808160E08F730E94C401AF
:10062000D8CF8091840090918500049680349C49B5
:1006300018F480E49CE905C08091840090918500C5
:10064000049690938900809388008FEF8093140123
:100650003BC0209184003091850080911401082EC8
:10066000000C990BFC01EE0FFF1F8E0F9F1FFC016A
:10067000E354FE4F81819281820F931F90938900F2
:100680008093880080911401082E000C990BFC01C6
:10069000EE0FFF1F8E0F9F1FFC01E354FE4F808162
:1006A00086FF12C080911401082E000C990BFC01EA
:1006B000EE0FFF1F8E0F9F1FFC01E354FE4F808142
:1006C00061E08F730E94C401FF91EF91BF91AF91E0
:1006D0009F918F917F916F915F914F913F912F915A
:1006E0000F900FBE0F901F9018951092230110923B
:1006F000220188EE93E0A0E0B0E080932401909383
:100700002501A0932601B093270188E091E0909302
:1007100021018093200185EC90E090932D0180933E
:100720002C0184EC90E090932F0180932E0180ECBB
:1007300090E0909331018093300181EC90E09093B0
:1007400033018093320182EC90E0909335018093E5
:10075000340186EC90E0909337018093360110923B
:10076000390110923A0110923B0110923C018091A4
:10077000E1018C30A0F491E0980F9093E101809317
:10078000E20190E0FC01EE0FFF1F8E0F9F1FFC01A6
:10079000E354FE4F88EB9BE09283818308958FEFB3
:1007A0008093E2010895CF93DF9300D000D0CDB7BE
:1007B000DEB7789484B5826084BD84B5816084BDE1
:1007C00085B5826085BD85B5816085BD80916E00EF
:1007D000816080936E001092810080918100826020
:1007E000809381008091810081608093810080915D
:1007F00080008160809380008091B100846080934C
:10080000B1008091B00081608093B00080917A0047
:10081000846080937A0080917A00826080937A006D
:1008200080917A00816080937A0080917A0080685C
:1008300080937A001092C100E0913001F091310173
:1008400082E08083E0912C01F0912D011082E091F3
:100850002E01F0912F018FEC808310923801E091EE
:100860003401F091350186E08083E0913201F0910E
:100870003301808180618083E0913201F091330106
:10088000808188608083E0913201F0913301808122
:1008900080688083E0913201F091330180818F7D07
:1008A000808385E090E0A0E0B0E080932401909305
:1008B0002501A0932601B09327018091E2018C309D
:1008C00008F068C0EDEAF0E02491E9E9F0E08491F5
:1008D000882399F090E0880F991FFC01EA57FF4F99
:1008E000A591B491FC01E458FF4F859194918FB785
:1008F000F894EC91E22BEC938FBF8091E201E82F0A
:10090000F0E09F01220F331FE20FF31FE354FE4F6D
:100910009081907C996090831092E3011092E401A1
:100920006CE00E94E3054CE0849FB001112440E09C
:1009300050E09A01260F371FF901EE0FFF1F2E0F0F
:100940003F1FF901E354FE4F908196FD16C04F5FA3
:100950005F4F4C30510569F781110FC01092800034
:1009600082E0809381001092850010928400B19AF9
:1009700080916F00826080936F00E091E201F0E06F
:10098000CF01880F991FE80FF91FE354FE4F8081B4
:10099000806480835EEB852E912CA12CB12C08E81D
:1009A00010E064EB462E512C612C712C80E291E01A
:1009B0000E941A01892B09F4E2C00E948700FC0101
:1009C00097FD11C08D32910591F0C0970A9778F08C
:1009D000E0912001F09121010680F781E02D80E275
:1009E00091E00995EACFC12CD12C76012DC020E0F1
:1009F00030E0A901312CE130F10509F0C3C0E091EC
:100A00002001F09121010680F781E02D80E291E044
:100A100029833A834B835C8309950E948700FC01FC
:100A2000C09729813A814B815C810A9720F3E1309C
:100A3000F10509F3332009F4C3C0CC24DD24760189
:100A4000C21AD30AE40AF50AC601825A9F4F8D3BA7
:100A5000910528F0D0921601C092150190C00D2C7E
:100A6000000CEE08FF08A7019601215A3F4F4F4F97
:100A70005F4FA4EBB0E00E941906A50194010E940B
:100A8000FA05C9013093160120931501203262E066
:100A90003607410551050CF03DC057FD06C0253B0A
:100AA00031052CF084EB90E002C080E090E02091D2
:100AB000E3016801C21AD10827FDD394D601AA0F19
:100AC000BB1FAA0FBB1F6D01BB0FEE08FF082091D3
:100AD000E40148E552E0421B510927FD53959A0174
:100AE000220F331F220F331FA901330F660B770B21
:100AF0009A01AB012C193D094E095F09DC010E94E6
:100B00002406A30192010E94FA05C20ED31EE41E20
:100B1000F51EC6012091E2012C3088F53091E301E9
:100B2000A801431B510937FD5395440F551F440F2E
:100B3000551F841795078CF03091E40168E572E049
:100B4000631B710937FD7395660F771F660F771F5B
:100B5000AC01681779070CF4AB01CA010297880F42
:100B6000991F4FB7F89430E0F901EE0FFF1F2E0FD9
:100B70003F1FF901E354FE4F928381834FBF0E94D0
:100B8000BA0114CFED32F105C1F0CF01C0970A9739
:100B900008F035CFAAE0B0E00E9419066F01FF0F00
:100BA000EE08FF08C60ED71EE81EF91EA701960123
:100BB000205331094109510922CF332433941FCFE7
:100BC00069017A0141CF991B79E004C0991F9617FA
:100BD00008F0961B881F7A95C9F780950895EE0F47
:100BE000FF1F0590F491E02D099481E090E0F894C6
:100BF0000C945D06052E97FB1EF400940E941106CE
:100C000057FD07D00E942C0607FC03D04EF40C942D
:100C1000110650954095309521953F4F4F4F5F4FAE
:100C2000089590958095709561957F4F8F4F9F4F58
:100C300008950E944E06A59F900DB49F900DA49F0D
:100C4000800D911D11240895B7FF0C9419060E9480
:100C50001906821B930B0895A1E21A2EAA1BBB1B37
:100C6000FD010DC0AA1FBB1FEE1FFF1FA217B30778
:100C7000E407F50720F0A21BB30BE40BF50B661F8E
:100C8000771F881F991F1A9469F760957095809552
:100C900090959B01AC01BD01CF010895A29FB001C9
:100CA000B39FC001A39F700D811D1124911DB29FA0
:0E0CB000700D811D1124911D0895F894FFCF41
:100CBE0001000000000000005101CD001A01F800F3
:040CCE000C0198017C
:00000001FF
